:100000000C942A000C943F000C943F000C943F0089
:100010000C943F000C943F000C943F000C943F0064
:100020000C943F000C943F000C943F000C943F0054
:100030000C943F000C943F000C943F000C943F0044
:100040000C943F000C943F000C943F000C943F0034
:100050000C943F0011241FBECFE5D8E0DEBFCDBF1A
:1000600011E0A0E6B0E0E2EAF9E002C005900D92EE
:10007000AC31B107D9F70E94B1020C94CF040C94B3
:10008000000082E08BB988E18AB986E880BD10BCA7
:100090008FEC89B908955D9BFECF8CB908955F9B65
:1000A000FECF8CB1089520E004C05D9BFECFECB97B
:1000B0002F5FFC01E20FF11DE081EE23B1F70895FF
:1000C000DC015F9BFECF8CB18C9320E008C02F5FDA
:1000D0005F9BFECF8CB1FD01E20FF11D8083FD011E
:1000E000E20FF11D808190E08056904081F71082F0
:1000F00008954130B1F5813099F0813030F082308F
:10010000D1F0833009F065C021C02AB381E090E0CE
:1001100002C0880F991F6A95E2F7282B2ABB089521
:1001200027B381E090E002C0880F991F6A95E2F73B
:10013000282B27BB089524B381E090E002C0880FEC
:10014000991F6A95E2F7282B24BB089521B381E01B
:1001500090E002C0880F991F6A95E2F7282B21BB17
:100160000895813099F0813028F08230D9F08330C1
:1001700081F524C02AB381E090E002C0880F991F66
:100180006A95E2F7809582238ABB089527B381E0C0
:1001900090E002C0880F991F6A95E2F7809582234C
:1001A00087BB089524B381E090E002C0880F991FB7
:1001B0006A95E2F78095822384BB089521B381E09C
:1001C00090E002C0880F991F6A95E2F7809582231C
:1001D00081BB08954130B1F5813099F0813030F024
:1001E0008230D1F0833009F065C021C02BB381E0AB
:1001F00090E002C0880F991F6A95E2F7282B2BBB6D
:10020000089528B381E090E002C0880F991F6A9595
:10021000E2F7282B28BB089525B381E090E002C0C7
:10022000880F991F6A95E2F7282B25BB089522B302
:1002300081E090E002C0880F991F6A95E2F7282BB1
:1002400022BB0895813099F0813028F08230D9F0B6
:10025000833081F524C02BB381E090E002C0880F89
:10026000991F6A95E2F7809582238BBB089528B386
:1002700081E090E002C0880F991F6A95E2F78095AF
:10028000822388BB089525B381E090E002C0880FE7
:10029000991F6A95E2F78095822385BB089522B362
:1002A00081E090E002C0880F991F6A95E2F780957F
:1002B000822382BB0895813049F0813028F082305A
:1002C00039F0833081F406C029B305C026B303C0DA
:1002D00023B301C020B381E090E002C0880F991FD2
:1002E0006A95E2F72823822F0895813049F0813002
:1002F00028F0823039F0833041F406C06ABB08959B
:1003000067BB089564BB089561BB0895813049F0CF
:10031000813028F0823039F0833041F406C06BBB65
:10032000089568BB089565BB089562BB089550E0C9
:1003300040E060E170E001C0542FCB01052E02C007
:10034000880F991F0A94E2F78ABB80958BBB20E047
:1003500030E089B390E0022E02C0959587950A940B
:10036000E2F780FD4DC0842F8F5F220F331F220FD5
:10037000331F820F883091F1893080F4843031F15D
:10038000853038F48230F1F08330F0F48130B9F503
:1003900017C08630F9F08730F8F41AC08C3031F18C
:1003A0008D3028F48A30F1F08B30F0F419C08E30A3
:1003B00009F18E30E8F08F30F9F0803101F51EC080
:1003C00087E0089588E0089589E008958FE2089510
:1003D00084E0089585E0089586E008958AE208950E
:1003E00081E0089582E0089583E008958DE2089504
:1003F00083E6089580E008958DE308958BE20895E3
:100400002F5F3F4F2430310509F0A3CF452F4F5FB9
:10041000443008F491CF50E040E08FCF9598969803
:1004200020EA3FE0F9013197F1F7979AF901319706
:10043000F1F788BBC9010197F1F797980895959A4C
:10044000969820EA3FE0F9013197F1F7979AF90180
:100450003197F1F788BBC9010197F1F79798089593
:100460001F93CF93DF93EC0110E003C00E941F02A3
:100470001F5FFE01E10FF11D80818823B9F7DF9135
:10048000CF911F910895813039F0813050F0823042
:1004900029F0833031F404C0605C03C0605F01C0A8
:1004A000605B862F80680E940E02089581E00E94A2
:1004B0000E0208950F931F938A010E944302C80100
:1004C0000E9430021F910F9108950F931F93DF93A5
:1004D000CF93CDB7DEB76E970FB6F894DEBF0FBEE1
:1004E000CDBF90E08E010F5F1F4FB8014AE050E092
:1004F0000E949E04C8010E9430026E960FB6F894C6
:10050000DEBF0FBECDBFCF91DF911F910F91089538
:100510000F931F9387B36FEF0E94750180EE81BB2D
:1005200084EF91E020E931E0F9013197F1F701978B
:10053000D9F788E30E940E0200EA1FE0C801019784
:10054000F1F78CE00E940E02C8010197F1F781E0FB
:100550000E940E0280E49FE10197F1F71F910F9135
:100560000895AF92BF92CF92DF92EF92FF920F93D6
:100570001F93CF93DF9382E06FE00E94750182E0CA
:1005800060EF0E9486010E94880280E062E042E6FD
:1005900050E00E945A0288E893E120E931E0F90135
:1005A0003197F1F70197D9F782EDA82E84E0B82EA4
:1005B00001EEC02E00E1D02E10E9E12E11E0F12E67
:1005C0000E94560280E062E04FE650E00E945A022C
:1005D00080EA9FE0F7013197F1F70197D9F70E9480
:1005E00056028DE790E00E94300281E060E04EE824
:1005F00050E00E945A020E949701813009F08FC09A
:100600000E94560280EA90E00E943002C0E0D0E0F2
:100610000BE08EE00E940E0288EE93E0F701319726
:10062000F1F70197D9F78CE00E940E020E94970122
:10063000182F8A3000F50E94650280ED97E0F701DF
:100640003197F1F70197D9F780E0602F4CEA50E03D
:100650000E945A02CE01810F911DEC01B3E0CC0F34
:10066000DD1FBA95E1F7880F991FC80FD91F0F5FDB
:100670000F3079F60FC00E94560280E061E04EEA2A
:1006800050E00E945A0280EA9FE0F7013197F1F7AB
:100690000197D9F7CE016AE070E00E948A04EB016D
:1006A00080EA9FE0F7013197F1F70197D9F70E94AF
:1006B0005602AC16BD06A1F48CEB90E00E9430020D
:1006C00085B3807F836085BB88EA91E6F701319727
:1006D000F1F70197D9F785B3807F866085BB07C1A5
:1006E000CC16DD0671F480E061E049EC50E00E9438
:1006F0005A0280E197E2F7013197F1F70197D9F7B4
:10070000F6C080E061E046ED50E00E945A0288E8C1
:1007100093E1F7013197F1F70197D9F7E8C08230FB
:1007200009F0E8C00E94560285EE90E00E94300277
:10073000C0E0D0E00BE08EE00E940E0288EE93E075
:10074000F7013197F1F70197D9F78CE00E940E027B
:100750000E949701182F8A3000F50E94650280EDF3
:1007600097E0F7013197F1F70197D9F780E0602F13
:100770004CEA50E00E945A02CE01810F911DEC011B
:10078000F3E0CC0FDD1FFA95E1F7880F991FC80F32
:10079000D91F0F5F0F3079F60FC00E94560280E01C
:1007A00061E04EEA50E00E945A0280EA9FE0F701C1
:1007B0003197F1F70197D9F780EA9FE0F701319778
:1007C000F1F70197D9F70E945602CE016AE070E076
:1007D0000E948A04A616B70609F07CC081EF90E05B
:1007E0000E94300281E060E04DEF50E00E945A022A
:1007F000C0E0D0E00BE08EE00E940E0288EE93E0B5
:10080000F7013197F1F70197D9F78CE00E940E02BA
:100810000E949701182F8A30A0F480E0602F0E9478
:100820004302812F0E94650280ED97E0F701319726
:10083000F1F70197D9F780E0602F4CEA50E00E9471
:100840005A02CE01810F911DEC0173E0CC0FDD1F28
:100850007A95E1F7880F991FC80FD91F0F5F0F30E6
:1008600051F6CE016AE070E00E948A045B019B01B0
:10087000CC24DD2417C0C60153E0880F991F5A9578
:10088000E1F7CC0CDD1CC80ED91EC9016AE070E08E
:100890000E948A04C80ED91EC9016AE070E00E9455
:1008A0008A049B012115310531F780EA9FE0F701A9
:1008B0003197F1F70197D9F70E9456028AE091E04B
:1008C0000E94300280EA9FE0F7013197F1F701972B
:1008D000D9F70DC080E061E046ED50E00E945A0279
:1008E00080EA9FE0F7013197F1F70197D9F70E946D
:1008F000560266CE0E94560280E061E04EEA50E069
:100900000E945A0280EA9FE0F7013197F1F70197C0
:10091000D9F756CEAA1BBB1B51E107C0AA1FBB1FAC
:10092000A617B70710F0A61BB70B881F991F5A957B
:10093000A9F780959095BC01CD010895FB019F0119
:10094000E8944230C4F04532B4F44A3029F497FBBD
:100950001EF4909581959F4F642F77270E948A04FB
:10096000805D8A330CF0895D8193CB010097A1F7FC
:1009700016F45DE251931082C9010C94BF04DC01AE
:10098000FC01672F71917723E1F7329704C07C91C6
:100990006D9370836291AE17BF07C8F30895F89402
:0209A000FFCF87
:1009A200230057656C636F6D6520486F6D6500436A
:1009B200686F6F73652061204D6F646500312D454E
:1009C2006E7465722050617373776F726400322D9A
:1009D2004368616E67652050617373776F7264005C
:1009E20050617373776F7264203A20002A00496E57
:1009F20076616C696420496E7075740057656C632A
:100A02006F6D65204261636B0043616C6C696E6758
:100A120020203931310057726F6E67205061737335
:100A2200776F7264004F6C642050617373203A20B8
:100A3200004E65772050617373203A20006F6E6C10
:100A420079204E756D626572730050617373776FB2
:0C0A52007264206368616E6765640000D8
:00000001FF
